{
  "_format": "hh-sol-artifact-1",
  "contractName": "HealthGame",
  "sourceName": "contracts/HealthGame.sol",
  "abi": [
    {
      "inputs": [
        {
          "internalType": "string[]",
          "name": "characterNames",
          "type": "string[]"
        },
        {
          "internalType": "string[]",
          "name": "characterImageURIs",
          "type": "string[]"
        },
        {
          "internalType": "uint256[]",
          "name": "characterEnergy",
          "type": "uint256[]"
        },
        {
          "internalType": "uint256[]",
          "name": "characterSleep",
          "type": "uint256[]"
        },
        {
          "internalType": "uint256[]",
          "name": "characterNutrition",
          "type": "uint256[]"
        },
        {
          "internalType": "uint256[]",
          "name": "characterActivity",
          "type": "uint256[]"
        },
        {
          "internalType": "string",
          "name": "studentName",
          "type": "string"
        },
        {
          "internalType": "string",
          "name": "studentImageURI",
          "type": "string"
        },
        {
          "internalType": "uint256",
          "name": "sleep",
          "type": "uint256"
        },
        {
          "internalType": "uint256",
          "name": "nutrition",
          "type": "uint256"
        },
        {
          "internalType": "uint256",
          "name": "activity",
          "type": "uint256"
        }
      ],
      "stateMutability": "nonpayable",
      "type": "constructor"
    },
    {
      "anonymous": false,
      "inputs": [
        {
          "indexed": true,
          "internalType": "address",
          "name": "owner",
          "type": "address"
        },
        {
          "indexed": true,
          "internalType": "address",
          "name": "approved",
          "type": "address"
        },
        {
          "indexed": true,
          "internalType": "uint256",
          "name": "tokenId",
          "type": "uint256"
        }
      ],
      "name": "Approval",
      "type": "event"
    },
    {
      "anonymous": false,
      "inputs": [
        {
          "indexed": true,
          "internalType": "address",
          "name": "owner",
          "type": "address"
        },
        {
          "indexed": true,
          "internalType": "address",
          "name": "operator",
          "type": "address"
        },
        {
          "indexed": false,
          "internalType": "bool",
          "name": "approved",
          "type": "bool"
        }
      ],
      "name": "ApprovalForAll",
      "type": "event"
    },
    {
      "anonymous": false,
      "inputs": [
        {
          "indexed": false,
          "internalType": "address",
          "name": "sender",
          "type": "address"
        },
        {
          "indexed": false,
          "internalType": "uint256",
          "name": "tokenId",
          "type": "uint256"
        },
        {
          "indexed": false,
          "internalType": "uint256",
          "name": "characterIndex",
          "type": "uint256"
        }
      ],
      "name": "CharacterNFTMinted",
      "type": "event"
    },
    {
      "anonymous": false,
      "inputs": [
        {
          "indexed": false,
          "internalType": "uint256",
          "name": "newStudentSleep",
          "type": "uint256"
        },
        {
          "indexed": false,
          "internalType": "uint256",
          "name": "newStudentNutrition",
          "type": "uint256"
        },
        {
          "indexed": false,
          "internalType": "uint256",
          "name": "newStudentActivity",
          "type": "uint256"
        },
        {
          "indexed": false,
          "internalType": "uint256",
          "name": "newPlayerEnergy",
          "type": "uint256"
        }
      ],
      "name": "InstructionComplete",
      "type": "event"
    },
    {
      "anonymous": false,
      "inputs": [
        {
          "indexed": true,
          "internalType": "address",
          "name": "from",
          "type": "address"
        },
        {
          "indexed": true,
          "internalType": "address",
          "name": "to",
          "type": "address"
        },
        {
          "indexed": true,
          "internalType": "uint256",
          "name": "tokenId",
          "type": "uint256"
        }
      ],
      "name": "Transfer",
      "type": "event"
    },
    {
      "inputs": [
        {
          "internalType": "address",
          "name": "to",
          "type": "address"
        },
        {
          "internalType": "uint256",
          "name": "tokenId",
          "type": "uint256"
        }
      ],
      "name": "approve",
      "outputs": [],
      "stateMutability": "nonpayable",
      "type": "function"
    },
    {
      "inputs": [
        {
          "internalType": "address",
          "name": "owner",
          "type": "address"
        }
      ],
      "name": "balanceOf",
      "outputs": [
        {
          "internalType": "uint256",
          "name": "",
          "type": "uint256"
        }
      ],
      "stateMutability": "view",
      "type": "function"
    },
    {
      "inputs": [],
      "name": "checkIfUserHasNFT",
      "outputs": [
        {
          "components": [
            {
              "internalType": "uint256",
              "name": "characterIndex",
              "type": "uint256"
            },
            {
              "internalType": "string",
              "name": "name",
              "type": "string"
            },
            {
              "internalType": "string",
              "name": "imageURI",
              "type": "string"
            },
            {
              "internalType": "uint256",
              "name": "energy",
              "type": "uint256"
            },
            {
              "internalType": "uint256",
              "name": "maxEnergy",
              "type": "uint256"
            },
            {
              "internalType": "uint256",
              "name": "sleep",
              "type": "uint256"
            },
            {
              "internalType": "uint256",
              "name": "nutrition",
              "type": "uint256"
            },
            {
              "internalType": "uint256",
              "name": "activity",
              "type": "uint256"
            }
          ],
          "internalType": "struct HealthGame.CharacterAttributes",
          "name": "",
          "type": "tuple"
        }
      ],
      "stateMutability": "view",
      "type": "function"
    },
    {
      "inputs": [],
      "name": "getAllDefaultCharacters",
      "outputs": [
        {
          "components": [
            {
              "internalType": "uint256",
              "name": "characterIndex",
              "type": "uint256"
            },
            {
              "internalType": "string",
              "name": "name",
              "type": "string"
            },
            {
              "internalType": "string",
              "name": "imageURI",
              "type": "string"
            },
            {
              "internalType": "uint256",
              "name": "energy",
              "type": "uint256"
            },
            {
              "internalType": "uint256",
              "name": "maxEnergy",
              "type": "uint256"
            },
            {
              "internalType": "uint256",
              "name": "sleep",
              "type": "uint256"
            },
            {
              "internalType": "uint256",
              "name": "nutrition",
              "type": "uint256"
            },
            {
              "internalType": "uint256",
              "name": "activity",
              "type": "uint256"
            }
          ],
          "internalType": "struct HealthGame.CharacterAttributes[]",
          "name": "",
          "type": "tuple[]"
        }
      ],
      "stateMutability": "view",
      "type": "function"
    },
    {
      "inputs": [
        {
          "internalType": "uint256",
          "name": "tokenId",
          "type": "uint256"
        }
      ],
      "name": "getApproved",
      "outputs": [
        {
          "internalType": "address",
          "name": "",
          "type": "address"
        }
      ],
      "stateMutability": "view",
      "type": "function"
    },
    {
      "inputs": [],
      "name": "getStudent",
      "outputs": [
        {
          "components": [
            {
              "internalType": "string",
              "name": "name",
              "type": "string"
            },
            {
              "internalType": "string",
              "name": "imageURI",
              "type": "string"
            },
            {
              "internalType": "uint256",
              "name": "sleep",
              "type": "uint256"
            },
            {
              "internalType": "uint256",
              "name": "nutrition",
              "type": "uint256"
            },
            {
              "internalType": "uint256",
              "name": "activity",
              "type": "uint256"
            }
          ],
          "internalType": "struct HealthGame.Student",
          "name": "",
          "type": "tuple"
        }
      ],
      "stateMutability": "view",
      "type": "function"
    },
    {
      "inputs": [
        {
          "internalType": "uint256",
          "name": "technique_id",
          "type": "uint256"
        }
      ],
      "name": "instructStudent",
      "outputs": [],
      "stateMutability": "nonpayable",
      "type": "function"
    },
    {
      "inputs": [
        {
          "internalType": "address",
          "name": "owner",
          "type": "address"
        },
        {
          "internalType": "address",
          "name": "operator",
          "type": "address"
        }
      ],
      "name": "isApprovedForAll",
      "outputs": [
        {
          "internalType": "bool",
          "name": "",
          "type": "bool"
        }
      ],
      "stateMutability": "view",
      "type": "function"
    },
    {
      "inputs": [
        {
          "internalType": "uint256",
          "name": "_characterIndex",
          "type": "uint256"
        }
      ],
      "name": "mintCharacterNFT",
      "outputs": [],
      "stateMutability": "nonpayable",
      "type": "function"
    },
    {
      "inputs": [],
      "name": "name",
      "outputs": [
        {
          "internalType": "string",
          "name": "",
          "type": "string"
        }
      ],
      "stateMutability": "view",
      "type": "function"
    },
    {
      "inputs": [
        {
          "internalType": "uint256",
          "name": "",
          "type": "uint256"
        }
      ],
      "name": "nftHolderAttributes",
      "outputs": [
        {
          "internalType": "uint256",
          "name": "characterIndex",
          "type": "uint256"
        },
        {
          "internalType": "string",
          "name": "name",
          "type": "string"
        },
        {
          "internalType": "string",
          "name": "imageURI",
          "type": "string"
        },
        {
          "internalType": "uint256",
          "name": "energy",
          "type": "uint256"
        },
        {
          "internalType": "uint256",
          "name": "maxEnergy",
          "type": "uint256"
        },
        {
          "internalType": "uint256",
          "name": "sleep",
          "type": "uint256"
        },
        {
          "internalType": "uint256",
          "name": "nutrition",
          "type": "uint256"
        },
        {
          "internalType": "uint256",
          "name": "activity",
          "type": "uint256"
        }
      ],
      "stateMutability": "view",
      "type": "function"
    },
    {
      "inputs": [
        {
          "internalType": "address",
          "name": "",
          "type": "address"
        }
      ],
      "name": "nftHolders",
      "outputs": [
        {
          "internalType": "uint256",
          "name": "",
          "type": "uint256"
        }
      ],
      "stateMutability": "view",
      "type": "function"
    },
    {
      "inputs": [
        {
          "internalType": "uint256",
          "name": "tokenId",
          "type": "uint256"
        }
      ],
      "name": "ownerOf",
      "outputs": [
        {
          "internalType": "address",
          "name": "",
          "type": "address"
        }
      ],
      "stateMutability": "view",
      "type": "function"
    },
    {
      "inputs": [
        {
          "internalType": "address",
          "name": "from",
          "type": "address"
        },
        {
          "internalType": "address",
          "name": "to",
          "type": "address"
        },
        {
          "internalType": "uint256",
          "name": "tokenId",
          "type": "uint256"
        }
      ],
      "name": "safeTransferFrom",
      "outputs": [],
      "stateMutability": "nonpayable",
      "type": "function"
    },
    {
      "inputs": [
        {
          "internalType": "address",
          "name": "from",
          "type": "address"
        },
        {
          "internalType": "address",
          "name": "to",
          "type": "address"
        },
        {
          "internalType": "uint256",
          "name": "tokenId",
          "type": "uint256"
        },
        {
          "internalType": "bytes",
          "name": "_data",
          "type": "bytes"
        }
      ],
      "name": "safeTransferFrom",
      "outputs": [],
      "stateMutability": "nonpayable",
      "type": "function"
    },
    {
      "inputs": [
        {
          "internalType": "address",
          "name": "operator",
          "type": "address"
        },
        {
          "internalType": "bool",
          "name": "approved",
          "type": "bool"
        }
      ],
      "name": "setApprovalForAll",
      "outputs": [],
      "stateMutability": "nonpayable",
      "type": "function"
    },
    {
      "inputs": [],
      "name": "student",
      "outputs": [
        {
          "internalType": "string",
          "name": "name",
          "type": "string"
        },
        {
          "internalType": "string",
          "name": "imageURI",
          "type": "string"
        },
        {
          "internalType": "uint256",
          "name": "sleep",
          "type": "uint256"
        },
        {
          "internalType": "uint256",
          "name": "nutrition",
          "type": "uint256"
        },
        {
          "internalType": "uint256",
          "name": "activity",
          "type": "uint256"
        }
      ],
      "stateMutability": "view",
      "type": "function"
    },
    {
      "inputs": [
        {
          "internalType": "bytes4",
          "name": "interfaceId",
          "type": "bytes4"
        }
      ],
      "name": "supportsInterface",
      "outputs": [
        {
          "internalType": "bool",
          "name": "",
          "type": "bool"
        }
      ],
      "stateMutability": "view",
      "type": "function"
    },
    {
      "inputs": [],
      "name": "symbol",
      "outputs": [
        {
          "internalType": "string",
          "name": "",
          "type": "string"
        }
      ],
      "stateMutability": "view",
      "type": "function"
    },
    {
      "inputs": [
        {
          "internalType": "uint256",
          "name": "_tokenId",
          "type": "uint256"
        }
      ],
      "name": "tokenURI",
      "outputs": [
        {
          "internalType": "string",
          "name": "",
          "type": "string"
        }
      ],
      "stateMutability": "view",
      "type": "function"
    },
    {
      "inputs": [
        {
          "internalType": "address",
          "name": "from",
          "type": "address"
        },
        {
          "internalType": "address",
          "name": "to",
          "type": "address"
        },
        {
          "internalType": "uint256",
          "name": "tokenId",
          "type": "uint256"
        }
      ],
      "name": "transferFrom",
      "outputs": [],
      "stateMutability": "nonpayable",
      "type": "function"
    }
  ],
  "bytecode": "0x60806040523480156200001157600080fd5b5060405162005c6d38038062005c6d833981810160405281019062000037919062000bb8565b6040518060400160405280600a81526020017f4865616c746847616d65000000000000000000000000000000000000000000008152506040518060400160405280600681526020017f4845594c544800000000000000000000000000000000000000000000000000008152508160009080519060200190620000bb9291906200094b565b508060019080519060200190620000d49291906200094b565b5050506040518060a0016040528086815260200185815260200184815260200183815260200182815250600960008201518160000190805190602001906200011e9291906200094b565b5060208201518160010190805190602001906200013d9291906200094b565b50604082015181600201556060820151816003015560808201518160040155905050620002ba60405180606001604052806027815260200162005c4660279139600960000180546200018f906200100b565b80601f0160208091040260200160405190810160405280929190818152602001828054620001bd906200100b565b80156200020e5780601f10620001e2576101008083540402835291602001916200020e565b820191906000526020600020905b815481529060010190602001808311620001f057829003601f168201915b50505050506009600101805462000225906200100b565b80601f016020809104026020016040519081016040528092919081815260200182805462000253906200100b565b8015620002a45780601f106200027857610100808354040283529160200191620002a4565b820191906000526020600020905b8154815290600101906020018083116200028657829003601f168201915b5050505050620007b760201b62001e351760201c565b60005b8b518110156200078e5760076040518061010001604052808381526020018e848151811062000315577f4e487b7100000000000000000000000000000000000000000000000000000000600052603260045260246000fd5b602002602001015181526020018d84815181106200035c577f4e487b7100000000000000000000000000000000000000000000000000000000600052603260045260246000fd5b602002602001015181526020018c8481518110620003a3577f4e487b7100000000000000000000000000000000000000000000000000000000600052603260045260246000fd5b602002602001015181526020018c8481518110620003ea577f4e487b7100000000000000000000000000000000000000000000000000000000600052603260045260246000fd5b602002602001015181526020018b848151811062000431577f4e487b7100000000000000000000000000000000000000000000000000000000600052603260045260246000fd5b602002602001015181526020018a848151811062000478577f4e487b7100000000000000000000000000000000000000000000000000000000600052603260045260246000fd5b60200260200101518152602001898481518110620004bf577f4e487b7100000000000000000000000000000000000000000000000000000000600052603260045260246000fd5b602002602001015181525090806001815401808255809150506001900390600052602060002090600802016000909190919091506000820151816000015560208201518160010190805190602001906200051b9291906200094b565b5060408201518160020190805190602001906200053a9291906200094b565b50606082015181600301556080820151816004015560a0820151816005015560c0820151816006015560e082015181600701555050600060078281548110620005ac577f4e487b7100000000000000000000000000000000000000000000000000000000600052603260045260246000fd5b90600052602060002090600802016040518061010001604052908160008201548152602001600182018054620005e2906200100b565b80601f016020809104026020016040519081016040528092919081815260200182805462000610906200100b565b8015620006615780601f10620006355761010080835404028352916020019162000661565b820191906000526020600020905b8154815290600101906020018083116200064357829003601f168201915b505050505081526020016002820180546200067c906200100b565b80601f0160208091040260200160405190810160405280929190818152602001828054620006aa906200100b565b8015620006fb5780601f10620006cf57610100808354040283529160200191620006fb565b820191906000526020600020905b815481529060010190602001808311620006dd57829003601f168201915b505050505081526020016003820154815260200160048201548152602001600582015481526020016006820154815260200160078201548152505090506200077660405180606001604052806029815260200162005c1d602991398260200151836060015184604001516200086060201b62001ed41760201c565b5060018162000786919062000f6e565b9050620002bd565b50620007a660066200090c60201b62001f761760201c565b5050505050505050505050620010f9565b6200085b838383604051602401620007d29392919062000dd9565b6040516020818303038152906040527f2ced7cef000000000000000000000000000000000000000000000000000000007bffffffffffffffffffffffffffffffffffffffffffffffffffffffff19166020820180517bffffffffffffffffffffffffffffffffffffffffffffffffffffffff83818316178352505050506200092260201b60201c565b505050565b62000906848484846040516024016200087d949392919062000e2b565b6040516020818303038152906040527f8d142cdd000000000000000000000000000000000000000000000000000000007bffffffffffffffffffffffffffffffffffffffffffffffffffffffff19166020820180517bffffffffffffffffffffffffffffffffffffffffffffffffffffffff83818316178352505050506200092260201b60201c565b50505050565b6001816000016000828254019250508190555050565b60008151905060006a636f6e736f6c652e6c6f679050602083016000808483855afa5050505050565b82805462000959906200100b565b90600052602060002090601f0160209004810192826200097d5760008555620009c9565b82601f106200099857805160ff1916838001178555620009c9565b82800160010185558215620009c9579182015b82811115620009c8578251825591602001919060010190620009ab565b5b509050620009d89190620009dc565b5090565b5b80821115620009f7576000816000905550600101620009dd565b5090565b600062000a1262000a0c8462000ec1565b62000e8d565b9050808382526020820190508260005b8581101562000a56578151850162000a3b888262000b74565b84526020840193506020830192505060018101905062000a22565b5050509392505050565b600062000a7762000a718462000ef0565b62000e8d565b9050808382526020820190508285602086028201111562000a9757600080fd5b60005b8581101562000acb578162000ab0888262000ba1565b84526020840193506020830192505060018101905062000a9a565b5050509392505050565b600062000aec62000ae68462000f1f565b62000e8d565b90508281526020810184848401111562000b0557600080fd5b62000b1284828562000fd5565b509392505050565b600082601f83011262000b2c57600080fd5b815162000b3e848260208601620009fb565b91505092915050565b600082601f83011262000b5957600080fd5b815162000b6b84826020860162000a60565b91505092915050565b600082601f83011262000b8657600080fd5b815162000b9884826020860162000ad5565b91505092915050565b60008151905062000bb281620010df565b92915050565b60008060008060008060008060008060006101608c8e03121562000bdb57600080fd5b60008c015167ffffffffffffffff81111562000bf657600080fd5b62000c048e828f0162000b1a565b9b505060208c015167ffffffffffffffff81111562000c2257600080fd5b62000c308e828f0162000b1a565b9a505060408c015167ffffffffffffffff81111562000c4e57600080fd5b62000c5c8e828f0162000b47565b99505060608c015167ffffffffffffffff81111562000c7a57600080fd5b62000c888e828f0162000b47565b98505060808c015167ffffffffffffffff81111562000ca657600080fd5b62000cb48e828f0162000b47565b97505060a08c015167ffffffffffffffff81111562000cd257600080fd5b62000ce08e828f0162000b47565b96505060c08c015167ffffffffffffffff81111562000cfe57600080fd5b62000d0c8e828f0162000b74565b95505060e08c015167ffffffffffffffff81111562000d2a57600080fd5b62000d388e828f0162000b74565b94505061010062000d4c8e828f0162000ba1565b93505061012062000d608e828f0162000ba1565b92505061014062000d748e828f0162000ba1565b9150509295989b509295989b9093969950565b600062000d948262000f52565b62000da0818562000f5d565b935062000db281856020860162000fd5565b62000dbd81620010ce565b840191505092915050565b62000dd38162000fcb565b82525050565b6000606082019050818103600083015262000df5818662000d87565b9050818103602083015262000e0b818562000d87565b9050818103604083015262000e21818462000d87565b9050949350505050565b6000608082019050818103600083015262000e47818762000d87565b9050818103602083015262000e5d818662000d87565b905062000e6e604083018562000dc8565b818103606083015262000e82818462000d87565b905095945050505050565b6000604051905081810181811067ffffffffffffffff8211171562000eb75762000eb66200109f565b5b8060405250919050565b600067ffffffffffffffff82111562000edf5762000ede6200109f565b5b602082029050602081019050919050565b600067ffffffffffffffff82111562000f0e5762000f0d6200109f565b5b602082029050602081019050919050565b600067ffffffffffffffff82111562000f3d5762000f3c6200109f565b5b601f19601f8301169050602081019050919050565b600081519050919050565b600082825260208201905092915050565b600062000f7b8262000fcb565b915062000f888362000fcb565b9250827fffffffffffffffffffffffffffffffffffffffffffffffffffffffffffffffff0382111562000fc05762000fbf62001041565b5b828201905092915050565b6000819050919050565b60005b8381101562000ff557808201518184015260208101905062000fd8565b8381111562001005576000848401525b50505050565b600060028204905060018216806200102457607f821691505b602082108114156200103b576200103a62001070565b5b50919050565b7f4e487b7100000000000000000000000000000000000000000000000000000000600052601160045260246000fd5b7f4e487b7100000000000000000000000000000000000000000000000000000000600052602260045260246000fd5b7f4e487b7100000000000000000000000000000000000000000000000000000000600052604160045260246000fd5b6000601f19601f8301169050919050565b620010ea8162000fcb565b8114620010f657600080fd5b50565b614b1480620011096000396000f3fe608060405234801561001057600080fd5b50600436106101375760003560e01c80637df124a1116100b8578063b88d4fde1161007c578063b88d4fde1461036b578063b953084e14610387578063c87b56dd146103a5578063c8cf27f4146103d5578063e985e9c5146103f3578063f8b81ef71461042357610137565b80637df124a1146102ac57806395d89b41146102dc57806398da4c95146102fa578063a22cb46514610331578063b439548d1461034d57610137565b80633f8b5d11116100ff5780633f8b5d11146101f257806342842e0e1461020e5780636352211e1461022a578063699450e81461025a57806370a082311461027c57610137565b806301ffc9a71461013c57806306fdde031461016c578063081812fc1461018a578063095ea7b3146101ba57806323b872dd146101d6575b600080fd5b6101566004803603810190610151919061326f565b61043f565b60405161016391906140b3565b60405180910390f35b610174610521565b60405161018191906140ce565b60405180910390f35b6101a4600480360381019061019f91906132c1565b6105b3565b6040516101b19190613ff3565b60405180910390f35b6101d460048036038101906101cf9190613233565b610638565b005b6101f060048036038101906101eb919061312d565b610750565b005b61020c600480360381019061020791906132c1565b6107b0565b005b6102286004803603810190610223919061312d565b610c5d565b005b610244600480360381019061023f91906132c1565b610c7d565b6040516102519190613ff3565b60405180910390f35b610262610d2f565b6040516102739594939291906141e9565b60405180910390f35b610296600480360381019061029191906130c8565b610e63565b6040516102a3919061448c565b60405180910390f35b6102c660048036038101906102c191906130c8565b610f1b565b6040516102d3919061448c565b60405180910390f35b6102e4610f33565b6040516102f191906140ce565b60405180910390f35b610314600480360381019061030f91906132c1565b610fc5565b6040516103289897969594939291906144a7565b60405180910390f35b61034b600480360381019061034691906131f7565b61111d565b005b610355611133565b604051610362919061446a565b60405180910390f35b6103856004803603810190610380919061317c565b61128f565b005b61038f6112f1565b60405161039c9190614091565b60405180910390f35b6103bf60048036038101906103ba91906132c1565b6114b1565b6040516103cc91906140ce565b60405180910390f35b6103dd611709565b6040516103ea9190614448565b60405180910390f35b61040d600480360381019061040891906130f1565b6118f6565b60405161041a91906140b3565b60405180910390f35b61043d600480360381019061043891906132c1565b61198a565b005b60007f80ac58cd000000000000000000000000000000000000000000000000000000007bffffffffffffffffffffffffffffffffffffffffffffffffffffffff1916827bffffffffffffffffffffffffffffffffffffffffffffffffffffffff1916148061050a57507f5b5e139f000000000000000000000000000000000000000000000000000000007bffffffffffffffffffffffffffffffffffffffffffffffffffffffff1916827bffffffffffffffffffffffffffffffffffffffffffffffffffffffff1916145b8061051a575061051982611f8c565b5b9050919050565b60606000805461053090614831565b80601f016020809104026020016040519081016040528092919081815260200182805461055c90614831565b80156105a95780601f1061057e576101008083540402835291602001916105a9565b820191906000526020600020905b81548152906001019060200180831161058c57829003601f168201915b5050505050905090565b60006105be82611ff6565b6105fd576040517f08c379a00000000000000000000000000000000000000000000000000000000081526004016105f4906143c8565b60405180910390fd5b6004600083815260200190815260200160002060009054906101000a900473ffffffffffffffffffffffffffffffffffffffff169050919050565b600061064382610c7d565b90508073ffffffffffffffffffffffffffffffffffffffff168373ffffffffffffffffffffffffffffffffffffffff1614156106b4576040517f08c379a00000000000000000000000000000000000000000000000000000000081526004016106ab90614408565b60405180910390fd5b8073ffffffffffffffffffffffffffffffffffffffff166106d3612062565b73ffffffffffffffffffffffffffffffffffffffff1614806107025750610701816106fc612062565b6118f6565b5b610741576040517f08c379a000000000000000000000000000000000000000000000000000000000815260040161073890614348565b60405180910390fd5b61074b838361206a565b505050565b61076161075b612062565b82612123565b6107a0576040517f08c379a000000000000000000000000000000000000000000000000000000000815260040161079790614428565b60405180910390fd5b6107ab838383612201565b505050565b6000600e60003373ffffffffffffffffffffffffffffffffffffffff1673ffffffffffffffffffffffffffffffffffffffff16815260200190815260200160002054905060006008600083815260200190815260200160002090506108c3604051806080016040528060458152602001614a6c6045913982600101805461083690614831565b80601f016020809104026020016040519081016040528092919081815260200182805461086290614831565b80156108af5780601f10610884576101008083540402835291602001916108af565b820191906000526020600020905b81548152906001019060200180831161089257829003601f168201915b50505050508360030154846005015461245d565b61097e604051806060016040528060258152602001614a0760259139600960000180546108ef90614831565b80601f016020809104026020016040519081016040528092919081815260200182805461091b90614831565b80156109685780601f1061093d57610100808354040283529160200191610968565b820191906000526020600020905b81548152906001019060200180831161094b57829003601f168201915b505050505060096002015460096003015461245d565b60008160030154116109c5576040517f08c379a00000000000000000000000000000000000000000000000000000000081526004016109bc906142c8565b60405180910390fd5b60008314156109ee5760056009600201546109e09190614666565b600960020181905550610bd2565b6001831415610a17576007600960020154610a099190614666565b600960020181905550610bd1565b6002831415610a40576003600960020154610a329190614666565b600960020181905550610bd0565b6003831415610a69576004600960040154610a5b9190614666565b600960040181905550610bcf565b6004831415610a9257600a600960030154610a849190614666565b600960030181905550610bce565b6005831415610abb576005600960040154610aad9190614666565b600960040181905550610bcd565b6006831415610ae35760098060040154610ad59190614666565b600960040181905550610bcc565b6007831415610b0c576002600960040154610afe9190614666565b600960040181905550610bcb565b6008831415610b35576006600960030154610b279190614666565b600960030181905550610bca565b6009831415610b5e576003600960040154610b509190614666565b600960040181905550610bc9565b600a831415610b87576003600960040154610b799190614666565b600960040181905550610bc8565b600b831415610bc7576003600960040154610ba29190614666565b6009600401819055506007600960020154610bbd9190614747565b6009600201819055505b5b5b5b5b5b5b5b5b5b5b5b600181600301541015610bee5760008160030181905550610c08565b60018160030154610bff9190614747565b81600301819055505b7f18487a417d08215f5c630645eab854fd826df9c9bb4f2b02efabb6a722e11a376009600201546009600301546009600401548460030154604051610c509493929190614533565b60405180910390a1505050565b610c788383836040518060200160405280600081525061128f565b505050565b6000806002600084815260200190815260200160002060009054906101000a900473ffffffffffffffffffffffffffffffffffffffff169050600073ffffffffffffffffffffffffffffffffffffffff168173ffffffffffffffffffffffffffffffffffffffff161415610d26576040517f08c379a0000000000000000000000000000000000000000000000000000000008152600401610d1d90614388565b60405180910390fd5b80915050919050565b6009806000018054610d4090614831565b80601f0160208091040260200160405190810160405280929190818152602001828054610d6c90614831565b8015610db95780601f10610d8e57610100808354040283529160200191610db9565b820191906000526020600020905b815481529060010190602001808311610d9c57829003601f168201915b505050505090806001018054610dce90614831565b80601f0160208091040260200160405190810160405280929190818152602001828054610dfa90614831565b8015610e475780601f10610e1c57610100808354040283529160200191610e47565b820191906000526020600020905b815481529060010190602001808311610e2a57829003601f168201915b5050505050908060020154908060030154908060040154905085565b60008073ffffffffffffffffffffffffffffffffffffffff168273ffffffffffffffffffffffffffffffffffffffff161415610ed4576040517f08c379a0000000000000000000000000000000000000000000000000000000008152600401610ecb90614368565b60405180910390fd5b600360008373ffffffffffffffffffffffffffffffffffffffff1673ffffffffffffffffffffffffffffffffffffffff168152602001908152602001600020549050919050565b600e6020528060005260406000206000915090505481565b606060018054610f4290614831565b80601f0160208091040260200160405190810160405280929190818152602001828054610f6e90614831565b8015610fbb5780601f10610f9057610100808354040283529160200191610fbb565b820191906000526020600020905b815481529060010190602001808311610f9e57829003601f168201915b5050505050905090565b6008602052806000526040600020600091509050806000015490806001018054610fee90614831565b80601f016020809104026020016040519081016040528092919081815260200182805461101a90614831565b80156110675780601f1061103c57610100808354040283529160200191611067565b820191906000526020600020905b81548152906001019060200180831161104a57829003601f168201915b50505050509080600201805461107c90614831565b80601f01602080910402602001604051908101604052809291908181526020018280546110a890614831565b80156110f55780601f106110ca576101008083540402835291602001916110f5565b820191906000526020600020905b8154815290600101906020018083116110d857829003601f168201915b5050505050908060030154908060040154908060050154908060060154908060070154905088565b61112f611128612062565b83836124ff565b5050565b61113b612ee0565b60096040518060a001604052908160008201805461115890614831565b80601f016020809104026020016040519081016040528092919081815260200182805461118490614831565b80156111d15780601f106111a6576101008083540402835291602001916111d1565b820191906000526020600020905b8154815290600101906020018083116111b457829003601f168201915b505050505081526020016001820180546111ea90614831565b80601f016020809104026020016040519081016040528092919081815260200182805461121690614831565b80156112635780601f1061123857610100808354040283529160200191611263565b820191906000526020600020905b81548152906001019060200180831161124657829003601f168201915b505050505081526020016002820154815260200160038201548152602001600482015481525050905090565b6112a061129a612062565b83612123565b6112df576040517f08c379a00000000000000000000000000000000000000000000000000000000081526004016112d690614428565b60405180910390fd5b6112eb8484848461266c565b50505050565b60606007805480602002602001604051908101604052809291908181526020016000905b828210156114a85783829060005260206000209060080201604051806101000160405290816000820154815260200160018201805461135390614831565b80601f016020809104026020016040519081016040528092919081815260200182805461137f90614831565b80156113cc5780601f106113a1576101008083540402835291602001916113cc565b820191906000526020600020905b8154815290600101906020018083116113af57829003601f168201915b505050505081526020016002820180546113e590614831565b80601f016020809104026020016040519081016040528092919081815260200182805461141190614831565b801561145e5780601f106114335761010080835404028352916020019161145e565b820191906000526020600020905b81548152906001019060200180831161144157829003601f168201915b505050505081526020016003820154815260200160048201548152602001600582015481526020016006820154815260200160078201548152505081526020019060010190611315565b50505050905090565b606060006008600084815260200190815260200160002060405180610100016040529081600082015481526020016001820180546114ee90614831565b80601f016020809104026020016040519081016040528092919081815260200182805461151a90614831565b80156115675780601f1061153c57610100808354040283529160200191611567565b820191906000526020600020905b81548152906001019060200180831161154a57829003601f168201915b5050505050815260200160028201805461158090614831565b80601f01602080910402602001604051908101604052809291908181526020018280546115ac90614831565b80156115f95780601f106115ce576101008083540402835291602001916115f9565b820191906000526020600020905b8154815290600101906020018083116115dc57829003601f168201915b50505050508152602001600382015481526020016004820154815260200160058201548152602001600682015481526020016007820154815250509050600061164582606001516126c8565b9050600061165683608001516126c8565b905060006116678460a001516126c8565b905060006116788560c001516126c8565b905060006116898660e001516126c8565b905060006116d3876020015161169e8b6126c8565b896040015189898989896040516020016116bf989796959493929190613efc565b604051602081830303815290604052612875565b90506000816040516020016116e89190613fd1565b60405160208183030381529060405290508098505050505050505050919050565b611711612f0f565b6000600e60003373ffffffffffffffffffffffffffffffffffffffff1673ffffffffffffffffffffffffffffffffffffffff16815260200190815260200160002054905060008111156118e55760086000828152602001908152602001600020604051806101000160405290816000820154815260200160018201805461179790614831565b80601f01602080910402602001604051908101604052809291908181526020018280546117c390614831565b80156118105780601f106117e557610100808354040283529160200191611810565b820191906000526020600020905b8154815290600101906020018083116117f357829003601f168201915b5050505050815260200160028201805461182990614831565b80601f016020809104026020016040519081016040528092919081815260200182805461185590614831565b80156118a25780601f10611877576101008083540402835291602001916118a2565b820191906000526020600020905b81548152906001019060200180831161188557829003601f168201915b50505050508152602001600382015481526020016004820154815260200160058201548152602001600682015481526020016007820154815250509150506118f3565b6118ed612f0f565b80925050505b90565b6000600560008473ffffffffffffffffffffffffffffffffffffffff1673ffffffffffffffffffffffffffffffffffffffff16815260200190815260200160002060008373ffffffffffffffffffffffffffffffffffffffff1673ffffffffffffffffffffffffffffffffffffffff16815260200190815260200160002060009054906101000a900460ff16905092915050565b60006119966006612a14565b90506119a23382612a22565b604051806101000160405280838152602001600784815481106119ee577f4e487b7100000000000000000000000000000000000000000000000000000000600052603260045260246000fd5b90600052602060002090600802016001018054611a0a90614831565b80601f0160208091040260200160405190810160405280929190818152602001828054611a3690614831565b8015611a835780601f10611a5857610100808354040283529160200191611a83565b820191906000526020600020905b815481529060010190602001808311611a6657829003601f168201915b5050505050815260200160078481548110611ac7577f4e487b7100000000000000000000000000000000000000000000000000000000600052603260045260246000fd5b90600052602060002090600802016002018054611ae390614831565b80601f0160208091040260200160405190810160405280929190818152602001828054611b0f90614831565b8015611b5c5780601f10611b3157610100808354040283529160200191611b5c565b820191906000526020600020905b815481529060010190602001808311611b3f57829003601f168201915b5050505050815260200160078481548110611ba0577f4e487b7100000000000000000000000000000000000000000000000000000000600052603260045260246000fd5b906000526020600020906008020160030154815260200160078481548110611bf1577f4e487b7100000000000000000000000000000000000000000000000000000000600052603260045260246000fd5b906000526020600020906008020160040154815260200160078481548110611c42577f4e487b7100000000000000000000000000000000000000000000000000000000600052603260045260246000fd5b906000526020600020906008020160050154815260200160078481548110611c93577f4e487b7100000000000000000000000000000000000000000000000000000000600052603260045260246000fd5b906000526020600020906008020160060154815260200160078481548110611ce4577f4e487b7100000000000000000000000000000000000000000000000000000000600052603260045260246000fd5b90600052602060002090600802016007015481525060086000838152602001908152602001600020600082015181600001556020820151816001019080519060200190611d32929190612f54565b506040820151816002019080519060200190611d4f929190612f54565b50606082015181600301556080820151816004015560a0820151816005015560c0820151816006015560e08201518160070155905050611da86040518060600160405280602e8152602001614ab1602e91398284612a40565b80600e60003373ffffffffffffffffffffffffffffffffffffffff1673ffffffffffffffffffffffffffffffffffffffff16815260200190815260200160002081905550611df66006611f76565b7f4bc303fd457a97b4691b9af582ce71868a3d258638c8d4f8c60988a0f0bfb8cd338284604051611e299392919061405a565b60405180910390a15050565b611ecf838383604051602401611e4d939291906140f0565b6040516020818303038152906040527f2ced7cef000000000000000000000000000000000000000000000000000000007bffffffffffffffffffffffffffffffffffffffffffffffffffffffff19166020820180517bffffffffffffffffffffffffffffffffffffffffffffffffffffffff8381831617835250505050612adf565b505050565b611f7084848484604051602401611eee949392919061413c565b6040516020818303038152906040527f8d142cdd000000000000000000000000000000000000000000000000000000007bffffffffffffffffffffffffffffffffffffffffffffffffffffffff19166020820180517bffffffffffffffffffffffffffffffffffffffffffffffffffffffff8381831617835250505050612adf565b50505050565b6001816000016000828254019250508190555050565b60007f01ffc9a7000000000000000000000000000000000000000000000000000000007bffffffffffffffffffffffffffffffffffffffffffffffffffffffff1916827bffffffffffffffffffffffffffffffffffffffffffffffffffffffff1916149050919050565b60008073ffffffffffffffffffffffffffffffffffffffff166002600084815260200190815260200160002060009054906101000a900473ffffffffffffffffffffffffffffffffffffffff1673ffffffffffffffffffffffffffffffffffffffff1614159050919050565b600033905090565b816004600083815260200190815260200160002060006101000a81548173ffffffffffffffffffffffffffffffffffffffff021916908373ffffffffffffffffffffffffffffffffffffffff160217905550808273ffffffffffffffffffffffffffffffffffffffff166120dd83610c7d565b73ffffffffffffffffffffffffffffffffffffffff167f8c5be1e5ebec7d5bd14f71427d1e84f3dd0314c0f7b2291e5b200ac8c7c3b92560405160405180910390a45050565b600061212e82611ff6565b61216d576040517f08c379a000000000000000000000000000000000000000000000000000000000815260040161216490614328565b60405180910390fd5b600061217883610c7d565b90508073ffffffffffffffffffffffffffffffffffffffff168473ffffffffffffffffffffffffffffffffffffffff1614806121e757508373ffffffffffffffffffffffffffffffffffffffff166121cf846105b3565b73ffffffffffffffffffffffffffffffffffffffff16145b806121f857506121f781856118f6565b5b91505092915050565b8273ffffffffffffffffffffffffffffffffffffffff1661222182610c7d565b73ffffffffffffffffffffffffffffffffffffffff1614612277576040517f08c379a000000000000000000000000000000000000000000000000000000000815260040161226e906143e8565b60405180910390fd5b600073ffffffffffffffffffffffffffffffffffffffff168273ffffffffffffffffffffffffffffffffffffffff1614156122e7576040517f08c379a00000000000000000000000000000000000000000000000000000000081526004016122de906142e8565b60405180910390fd5b6122f2838383612b08565b6122fd60008261206a565b6001600360008573ffffffffffffffffffffffffffffffffffffffff1673ffffffffffffffffffffffffffffffffffffffff168152602001908152602001600020600082825461234d9190614747565b925050819055506001600360008473ffffffffffffffffffffffffffffffffffffffff1673ffffffffffffffffffffffffffffffffffffffff16815260200190815260200160002060008282546123a49190614666565b92505081905550816002600083815260200190815260200160002060006101000a81548173ffffffffffffffffffffffffffffffffffffffff021916908373ffffffffffffffffffffffffffffffffffffffff160217905550808273ffffffffffffffffffffffffffffffffffffffff168473ffffffffffffffffffffffffffffffffffffffff167fddf252ad1be2c89b69c2b068fc378daa952ba7f163c4a11628f55a4df523b3ef60405160405180910390a4505050565b6124f9848484846040516024016124779493929190614196565b6040516020818303038152906040527fd5cf17d0000000000000000000000000000000000000000000000000000000007bffffffffffffffffffffffffffffffffffffffffffffffffffffffff19166020820180517bffffffffffffffffffffffffffffffffffffffffffffffffffffffff8381831617835250505050612adf565b50505050565b8173ffffffffffffffffffffffffffffffffffffffff168373ffffffffffffffffffffffffffffffffffffffff16141561256e576040517f08c379a000000000000000000000000000000000000000000000000000000000815260040161256590614308565b60405180910390fd5b80600560008573ffffffffffffffffffffffffffffffffffffffff1673ffffffffffffffffffffffffffffffffffffffff16815260200190815260200160002060008473ffffffffffffffffffffffffffffffffffffffff1673ffffffffffffffffffffffffffffffffffffffff16815260200190815260200160002060006101000a81548160ff0219169083151502179055508173ffffffffffffffffffffffffffffffffffffffff168373ffffffffffffffffffffffffffffffffffffffff167f17307eab39ab6107e8899845ad3d59bd9653f200f220920489ca2b5937696c318360405161265f91906140b3565b60405180910390a3505050565b612677848484612201565b61268384848484612b0d565b6126c2576040517f08c379a00000000000000000000000000000000000000000000000000000000081526004016126b990614288565b60405180910390fd5b50505050565b60606000821415612710576040518060400160405280600181526020017f30000000000000000000000000000000000000000000000000000000000000008152509050612870565b600082905060005b6000821461274257808061272b90614863565b915050600a8261273b91906146bc565b9150612718565b60008167ffffffffffffffff811115612784577f4e487b7100000000000000000000000000000000000000000000000000000000600052604160045260246000fd5b6040519080825280601f01601f1916602001820160405280156127b65781602001600182028036833780820191505090505b5090505b60008514612869576001826127cf9190614747565b9150600a856127de91906148ac565b60306127ea9190614666565b60f81b818381518110612826577f4e487b7100000000000000000000000000000000000000000000000000000000600052603260045260246000fd5b60200101907effffffffffffffffffffffffffffffffffffffffffffffffffffffffffffff1916908160001a905350600a8561286291906146bc565b94506127ba565b8093505050505b919050565b606060008251141561289857604051806020016040528060008152509050612a0f565b6000604051806060016040528060408152602001614a2c60409139905060006003600285516128c79190614666565b6128d191906146bc565b60046128dd91906146ed565b905060006020826128ee9190614666565b67ffffffffffffffff81111561292d577f4e487b7100000000000000000000000000000000000000000000000000000000600052604160045260246000fd5b6040519080825280601f01601f19166020018201604052801561295f5781602001600182028036833780820191505090505b509050818152600183018586518101602084015b818310156129ce576003830192508251603f8160121c168501518253600182019150603f81600c1c168501518253600182019150603f8160061c168501518253600182019150603f8116850151825360018201915050612973565b6003895106600181146129e857600281146129f857612a03565b613d3d60f01b6002830352612a03565b603d60f81b60018303525b50505050508093505050505b919050565b600081600001549050919050565b612a3c828260405180602001604052806000815250612ca4565b5050565b612ada838383604051602401612a589392919061424a565b6040516020818303038152906040527f969cdd03000000000000000000000000000000000000000000000000000000007bffffffffffffffffffffffffffffffffffffffffffffffffffffffff19166020820180517bffffffffffffffffffffffffffffffffffffffffffffffffffffffff8381831617835250505050612adf565b505050565b60008151905060006a636f6e736f6c652e6c6f679050602083016000808483855afa5050505050565b505050565b6000612b2e8473ffffffffffffffffffffffffffffffffffffffff16612cff565b15612c97578373ffffffffffffffffffffffffffffffffffffffff1663150b7a02612b57612062565b8786866040518563ffffffff1660e01b8152600401612b79949392919061400e565b602060405180830381600087803b158015612b9357600080fd5b505af1925050508015612bc457506040513d601f19601f82011682018060405250810190612bc19190613298565b60015b612c47573d8060008114612bf4576040519150601f19603f3d011682016040523d82523d6000602084013e612bf9565b606091505b50600081511415612c3f576040517f08c379a0000000000000000000000000000000000000000000000000000000008152600401612c3690614288565b60405180910390fd5b805181602001fd5b63150b7a0260e01b7bffffffffffffffffffffffffffffffffffffffffffffffffffffffff1916817bffffffffffffffffffffffffffffffffffffffffffffffffffffffff191614915050612c9c565b600190505b949350505050565b612cae8383612d12565b612cbb6000848484612b0d565b612cfa576040517f08c379a0000000000000000000000000000000000000000000000000000000008152600401612cf190614288565b60405180910390fd5b505050565b600080823b905060008111915050919050565b600073ffffffffffffffffffffffffffffffffffffffff168273ffffffffffffffffffffffffffffffffffffffff161415612d82576040517f08c379a0000000000000000000000000000000000000000000000000000000008152600401612d79906143a8565b60405180910390fd5b612d8b81611ff6565b15612dcb576040517f08c379a0000000000000000000000000000000000000000000000000000000008152600401612dc2906142a8565b60405180910390fd5b612dd760008383612b08565b6001600360008473ffffffffffffffffffffffffffffffffffffffff1673ffffffffffffffffffffffffffffffffffffffff1681526020019081526020016000206000828254612e279190614666565b92505081905550816002600083815260200190815260200160002060006101000a81548173ffffffffffffffffffffffffffffffffffffffff021916908373ffffffffffffffffffffffffffffffffffffffff160217905550808273ffffffffffffffffffffffffffffffffffffffff16600073ffffffffffffffffffffffffffffffffffffffff167fddf252ad1be2c89b69c2b068fc378daa952ba7f163c4a11628f55a4df523b3ef60405160405180910390a45050565b6040518060a0016040528060608152602001606081526020016000815260200160008152602001600081525090565b60405180610100016040528060008152602001606081526020016060815260200160008152602001600081526020016000815260200160008152602001600081525090565b828054612f6090614831565b90600052602060002090601f016020900481019282612f825760008555612fc9565b82601f10612f9b57805160ff1916838001178555612fc9565b82800160010185558215612fc9579182015b82811115612fc8578251825591602001919060010190612fad565b5b509050612fd69190612fda565b5090565b5b80821115612ff3576000816000905550600101612fdb565b5090565b600061300a613005846145a9565b614578565b90508281526020810184848401111561302257600080fd5b61302d8482856147ef565b509392505050565b600081359050613044816149aa565b92915050565b600081359050613059816149c1565b92915050565b60008135905061306e816149d8565b92915050565b600081519050613083816149d8565b92915050565b600082601f83011261309a57600080fd5b81356130aa848260208601612ff7565b91505092915050565b6000813590506130c2816149ef565b92915050565b6000602082840312156130da57600080fd5b60006130e884828501613035565b91505092915050565b6000806040838503121561310457600080fd5b600061311285828601613035565b925050602061312385828601613035565b9150509250929050565b60008060006060848603121561314257600080fd5b600061315086828701613035565b935050602061316186828701613035565b9250506040613172868287016130b3565b9150509250925092565b6000806000806080858703121561319257600080fd5b60006131a087828801613035565b94505060206131b187828801613035565b93505060406131c2878288016130b3565b925050606085013567ffffffffffffffff8111156131df57600080fd5b6131eb87828801613089565b91505092959194509250565b6000806040838503121561320a57600080fd5b600061321885828601613035565b92505060206132298582860161304a565b9150509250929050565b6000806040838503121561324657600080fd5b600061325485828601613035565b9250506020613265858286016130b3565b9150509250929050565b60006020828403121561328157600080fd5b600061328f8482850161305f565b91505092915050565b6000602082840312156132aa57600080fd5b60006132b884828501613074565b91505092915050565b6000602082840312156132d357600080fd5b60006132e1848285016130b3565b91505092915050565b60006132f68383613cf3565b905092915050565b6133078161477b565b82525050565b6000613318826145e9565b6133228185614617565b935083602082028501613334856145d9565b8060005b85811015613370578484038952815161335185826132ea565b945061335c8361460a565b925060208a01995050600181019050613338565b50829750879550505050505092915050565b61338b8161478d565b82525050565b600061339c826145f4565b6133a68185614628565b93506133b68185602086016147fe565b6133bf81614999565b840191505092915050565b60006133d5826145ff565b6133df8185614639565b93506133ef8185602086016147fe565b6133f881614999565b840191505092915050565b600061340e826145ff565b613418818561464a565b93506134288185602086016147fe565b61343181614999565b840191505092915050565b6000613447826145ff565b613451818561465b565b93506134618185602086016147fe565b80840191505092915050565b600061347a600b8361465b565b91507f202d2d204e465420233a200000000000000000000000000000000000000000006000830152600b82019050919050565b60006134ba60328361464a565b91507f4552433732313a207472616e7366657220746f206e6f6e20455243373231526560008301527f63656976657220696d706c656d656e74657200000000000000000000000000006020830152604082019050919050565b6000613520601c8361464a565b91507f4552433732313a20746f6b656e20616c7265616479206d696e746564000000006000830152602082019050919050565b6000613560602e8361465b565b91507f7d2c207b202274726169745f74797065223a202241637469766974792053636f60008301527f7265222c202276616c7565223a200000000000000000000000000000000000006020830152602e82019050919050565b60006135c660368361464a565b91507f4572726f723a20636861726163746572206d757374206861766520656e65726760008301527f7920746f20696e7374727563742073747564656e742e000000000000000000006020830152604082019050919050565b600061362c600e8361465b565b91507f2c20226d61785f76616c7565223a0000000000000000000000000000000000006000830152600e82019050919050565b600061366c60248361464a565b91507f4552433732313a207472616e7366657220746f20746865207a65726f2061646460008301527f72657373000000000000000000000000000000000000000000000000000000006020830152604082019050919050565b60006136d260198361464a565b91507f4552433732313a20617070726f766520746f2063616c6c6572000000000000006000830152602082019050919050565b6000613712602c8361464a565b91507f4552433732313a206f70657261746f7220717565727920666f72206e6f6e657860008301527f697374656e7420746f6b656e00000000000000000000000000000000000000006020830152604082019050919050565b600061377860388361464a565b91507f4552433732313a20617070726f76652063616c6c6572206973206e6f74206f7760008301527f6e6572206e6f7220617070726f76656420666f7220616c6c00000000000000006020830152604082019050919050565b60006137de602a8361464a565b91507f4552433732313a2062616c616e636520717565727920666f7220746865207a6560008301527f726f2061646472657373000000000000000000000000000000000000000000006020830152604082019050919050565b600061384460298361464a565b91507f4552433732313a206f776e657220717565727920666f72206e6f6e657869737460008301527f656e7420746f6b656e00000000000000000000000000000000000000000000006020830152604082019050919050565b60006138aa60048361465b565b91507f7d205d7d000000000000000000000000000000000000000000000000000000006000830152600482019050919050565b60006138ea60208361464a565b91507f4552433732313a206d696e7420746f20746865207a65726f20616464726573736000830152602082019050919050565b600061392a602c8361464a565b91507f4552433732313a20617070726f76656420717565727920666f72206e6f6e657860008301527f697374656e7420746f6b656e00000000000000000000000000000000000000006020830152604082019050919050565b600061399060548361465b565b91507f222c20226465736372697074696f6e223a20225468697320697320616e204e4660008301527f542074686174206c6574732070656f706c6520706c617920696e204865616c7460208301527f682047616d6521222c2022696d616765223a20220000000000000000000000006040830152605482019050919050565b6000613a1c60298361464a565b91507f4552433732313a207472616e73666572206f6620746f6b656e2074686174206960008301527f73206e6f74206f776e00000000000000000000000000000000000000000000006020830152604082019050919050565b6000613a82600a8361465b565b91507f7b226e616d65223a2022000000000000000000000000000000000000000000006000830152600a82019050919050565b6000613ac260218361464a565b91507f4552433732313a20617070726f76616c20746f2063757272656e74206f776e6560008301527f72000000000000000000000000000000000000000000000000000000000000006020830152604082019050919050565b6000613b28601d8361465b565b91507f646174613a6170706c69636174696f6e2f6a736f6e3b6261736536342c0000006000830152601d82019050919050565b6000613b6860318361464a565b91507f4552433732313a207472616e736665722063616c6c6572206973206e6f74206f60008301527f776e6572206e6f7220617070726f7665640000000000000000000000000000006020830152604082019050919050565b6000613bce602b8361465b565b91507f7d2c207b202274726169745f74797065223a2022536c6565702053636f72652260008301527f2c202276616c7565223a200000000000000000000000000000000000000000006020830152602b82019050919050565b6000613c3460368361465b565b91507f222c202261747472696275746573223a205b207b202274726169745f7479706560008301527f223a2022456e65726779222c202276616c7565223a20000000000000000000006020830152603682019050919050565b6000613c9a602f8361465b565b91507f7d2c207b202274726169745f74797065223a20224e7574726974696f6e20536360008301527f6f7265222c202276616c7565223a2000000000000000000000000000000000006020830152602f82019050919050565b600061010083016000830151613d0c6000860182613ede565b5060208301518482036020860152613d2482826133ca565b91505060408301518482036040860152613d3e82826133ca565b9150506060830151613d536060860182613ede565b506080830151613d666080860182613ede565b5060a0830151613d7960a0860182613ede565b5060c0830151613d8c60c0860182613ede565b5060e0830151613d9f60e0860182613ede565b508091505092915050565b600061010083016000830151613dc36000860182613ede565b5060208301518482036020860152613ddb82826133ca565b91505060408301518482036040860152613df582826133ca565b9150506060830151613e0a6060860182613ede565b506080830151613e1d6080860182613ede565b5060a0830151613e3060a0860182613ede565b5060c0830151613e4360c0860182613ede565b5060e0830151613e5660e0860182613ede565b508091505092915050565b600060a0830160008301518482036000860152613e7e82826133ca565b91505060208301518482036020860152613e9882826133ca565b9150506040830151613ead6040860182613ede565b506060830151613ec06060860182613ede565b506080830151613ed36080860182613ede565b508091505092915050565b613ee7816147e5565b82525050565b613ef6816147e5565b82525050565b6000613f0782613a75565b9150613f13828b61343c565b9150613f1e8261346d565b9150613f2a828a61343c565b9150613f3582613983565b9150613f41828961343c565b9150613f4c82613c27565b9150613f58828861343c565b9150613f638261361f565b9150613f6f828761343c565b9150613f7a82613bc1565b9150613f86828661343c565b9150613f9182613c8d565b9150613f9d828561343c565b9150613fa882613553565b9150613fb4828461343c565b9150613fbf8261389d565b91508190509998505050505050505050565b6000613fdc82613b1b565b9150613fe8828461343c565b915081905092915050565b600060208201905061400860008301846132fe565b92915050565b600060808201905061402360008301876132fe565b61403060208301866132fe565b61403d6040830185613eed565b818103606083015261404f8184613391565b905095945050505050565b600060608201905061406f60008301866132fe565b61407c6020830185613eed565b6140896040830184613eed565b949350505050565b600060208201905081810360008301526140ab818461330d565b905092915050565b60006020820190506140c86000830184613382565b92915050565b600060208201905081810360008301526140e88184613403565b905092915050565b6000606082019050818103600083015261410a8186613403565b9050818103602083015261411e8185613403565b905081810360408301526141328184613403565b9050949350505050565b600060808201905081810360008301526141568187613403565b9050818103602083015261416a8186613403565b90506141796040830185613eed565b818103606083015261418b8184613403565b905095945050505050565b600060808201905081810360008301526141b08187613403565b905081810360208301526141c48186613403565b90506141d36040830185613eed565b6141e06060830184613eed565b95945050505050565b600060a08201905081810360008301526142038188613403565b905081810360208301526142178187613403565b90506142266040830186613eed565b6142336060830185613eed565b6142406080830184613eed565b9695505050505050565b600060608201905081810360008301526142648186613403565b90506142736020830185613eed565b6142806040830184613eed565b949350505050565b600060208201905081810360008301526142a1816134ad565b9050919050565b600060208201905081810360008301526142c181613513565b9050919050565b600060208201905081810360008301526142e1816135b9565b9050919050565b600060208201905081810360008301526143018161365f565b9050919050565b60006020820190508181036000830152614321816136c5565b9050919050565b6000602082019050818103600083015261434181613705565b9050919050565b600060208201905081810360008301526143618161376b565b9050919050565b60006020820190508181036000830152614381816137d1565b9050919050565b600060208201905081810360008301526143a181613837565b9050919050565b600060208201905081810360008301526143c1816138dd565b9050919050565b600060208201905081810360008301526143e18161391d565b9050919050565b6000602082019050818103600083015261440181613a0f565b9050919050565b6000602082019050818103600083015261442181613ab5565b9050919050565b6000602082019050818103600083015261444181613b5b565b9050919050565b600060208201905081810360008301526144628184613daa565b905092915050565b600060208201905081810360008301526144848184613e61565b905092915050565b60006020820190506144a16000830184613eed565b92915050565b6000610100820190506144bd600083018b613eed565b81810360208301526144cf818a613403565b905081810360408301526144e38189613403565b90506144f26060830188613eed565b6144ff6080830187613eed565b61450c60a0830186613eed565b61451960c0830185613eed565b61452660e0830184613eed565b9998505050505050505050565b60006080820190506145486000830187613eed565b6145556020830186613eed565b6145626040830185613eed565b61456f6060830184613eed565b95945050505050565b6000604051905081810181811067ffffffffffffffff8211171561459f5761459e61496a565b5b8060405250919050565b600067ffffffffffffffff8211156145c4576145c361496a565b5b601f19601f8301169050602081019050919050565b6000819050602082019050919050565b600081519050919050565b600081519050919050565b600081519050919050565b6000602082019050919050565b600082825260208201905092915050565b600082825260208201905092915050565b600082825260208201905092915050565b600082825260208201905092915050565b600081905092915050565b6000614671826147e5565b915061467c836147e5565b9250827fffffffffffffffffffffffffffffffffffffffffffffffffffffffffffffffff038211156146b1576146b06148dd565b5b828201905092915050565b60006146c7826147e5565b91506146d2836147e5565b9250826146e2576146e161490c565b5b828204905092915050565b60006146f8826147e5565b9150614703836147e5565b9250817fffffffffffffffffffffffffffffffffffffffffffffffffffffffffffffffff048311821515161561473c5761473b6148dd565b5b828202905092915050565b6000614752826147e5565b915061475d836147e5565b9250828210156147705761476f6148dd565b5b828203905092915050565b6000614786826147c5565b9050919050565b60008115159050919050565b60007fffffffff0000000000000000000000000000000000000000000000000000000082169050919050565b600073ffffffffffffffffffffffffffffffffffffffff82169050919050565b6000819050919050565b82818337600083830152505050565b60005b8381101561481c578082015181840152602081019050614801565b8381111561482b576000848401525b50505050565b6000600282049050600182168061484957607f821691505b6020821081141561485d5761485c61493b565b5b50919050565b600061486e826147e5565b91507fffffffffffffffffffffffffffffffffffffffffffffffffffffffffffffffff8214156148a1576148a06148dd565b5b600182019050919050565b60006148b7826147e5565b91506148c2836147e5565b9250826148d2576148d161490c565b5b828206905092915050565b7f4e487b7100000000000000000000000000000000000000000000000000000000600052601160045260246000fd5b7f4e487b7100000000000000000000000000000000000000000000000000000000600052601260045260246000fd5b7f4e487b7100000000000000000000000000000000000000000000000000000000600052602260045260246000fd5b7f4e487b7100000000000000000000000000000000000000000000000000000000600052604160045260246000fd5b6000601f19601f8301169050919050565b6149b38161477b565b81146149be57600080fd5b50565b6149ca8161478d565b81146149d557600080fd5b50565b6149e181614799565b81146149ec57600080fd5b50565b6149f8816147e5565b8114614a0357600080fd5b5056fe53747564656e742025732068617320257320736c6565702c202573206e7574726974696f6e4142434445464748494a4b4c4d4e4f505152535455565758595a6162636465666768696a6b6c6d6e6f707172737475767778797a303132333435363738392b2f0a506c6179657220772f206368617261637465722025732061626f757420746f20696e7374727563742e2048617320257320656e6572677920616e6420257320736c6565704d696e746564204e465420772f20746f6b656e496420257320616e6420636861726163746572496e646578202573a2646970667358221220faaa9a812d0cf071d280cbd57f1b435c4668442a7bfeca3fea7888f414bf928f64736f6c63430008000033446f6e6520696e697469616c697a696e6720257320772f20456e657267792025732c20696d67202573446f6e6520696e697469616c697a696e672073747564656e7420257320772f2020696d67202573",
  "linkReferences": {},
  "deployedLinkReferences": {}
}